:100000000C9425080C946C080C946C080C946C08E7
:100010000C946C080C946C080C946C080C946C0890
:100020000C946C080C946C080C942D320C940133D5
:100030000C94C42C0C946C080C946C080C946C08F4
:100040000C946C080C946C080C946C080C946C0860
:100050000C94651C0C941B2D0C946C080C946C086F
:100060000C946C080C946C080C946C080C946C0840
:100070000C946C080C946C080C946C080C946C0830
:100080000C946C080C946C080C946C080C946C0820
:100090000C946C080C946C080C946C080C946C0810
:1000A0000C946C080C946C080C946C0829003500B6
:1000B00014001A000800150017001C0018000C009E
:1000C000120013002F0030004B00E0000400160067
:1000D000070009000A000B000D000E000F0033009E
:1000E00034714E000000E2001D001B0006001900E4
:1000F0000500110010003600370038003174000090
:1001000000000000000000004C422A62E341284148
:100110002C002B420000000000000000A8002D026F
:100120003A003B003C003D003E003F0040004100E3
:100130004200430044004500010057001E021F0218
:100140002002210222022302240225022602270283
:100150002E000100000056001E001F00200021009C
:1001600022002300240025002600270001000000B3
:10017000000000000000000001000100010001007B
:100180000100010000000000000000000100530019
:1001900054005F006000610056004D004A005200AC
:1001A0004600470039000100A900670055005C00C7
:1001B0005D005E0057000100500051004F004900F3
:1001C0006500AA0000000100620059005A005B00AF
:1001D000850001004D0001004E00480001000000B4
:1001E000000000000000000001000100010001000B
:1001F00001000100000000000000000044454255DD
:10020000473A2064697361626C65642E0A00444554
:100210004255473A20656E61626C65642E0A000A99
:10022000002530313662003A200025303258000A6D
:10023000722F63203031323334353637383941420A
:10024000434445460A003F00433E20004C25640AD3
:100250000074696D65725F72656164333228293A92
:10026000202530346C580A006B65796D61705F63CE
:100270006F6E6669672E6E6B726F3A2025580A00A2
:100280006B6579626F6172645F69646C653A2025A1
:10029000580A006B6579626F6172645F70726F7487
:1002A0006F636F6C3A2025580A00686F73745F6B38
:1002B0006579626F6172645F6C65647328293A20A6
:1002C00025580A000A092D20537461747573202D76
:1002D0000A004743433A20382E342E3020415652EC
:1002E0002D4C4942433A20322E302E302041565276
:1002F0005F415243483A20617672350A004F5054AC
:10030000494F4E533A204C5546412045585452418E
:100310004B455920434F4E534F4C4520434F4D4D75
:10032000414E44204E4B524F20343039360A004261
:1003300055494C443A2020284A756C2031362032E9
:10034000303231290A005649443A20307846454532
:100350004428646F7279616E5F616E645F6E6D31A7
:100360003729205049443A203078363036302841F9
:100370006E67656C2057696E677329205645523A3F
:10038000203078303030310A000A092D205665724D
:1003900073696F6E202D0A000A092D20436F6E735A
:1003A0006F6C65202D0A4553432F713A09717569A9
:1003B000740A000A092D204D61676963202D0A44E3
:1003C0003A094465627567204D65737361676520FE
:1003D000546F67676C650A583A094D6174726978A1
:1003E000204465627567204D6F646520546F6767B0
:1003F0006C65202D2053686F77206B65797072656E
:100400007373657320696E206D61747269782067FB
:100410007269640A4B3A094B6579626F61726420B4
:10042000446562756720546F67676C65202D2053A3
:10043000686F77206B657970726573732072657071
:100440006F72740A4D3A094465627567204D6F7585
:10045000736520546F67676C650A563A0956657272
:1004600073696F6E0A533A095374617475730A4362
:100470003A09416374697661746520436F6E736FE6
:100480006C65204D6F64650A46312D4631303A095E
:1004900053776974636820746F204C6179657220AA
:1004A000302D392028463130203D204C30290A306B
:1004B0002D393A0953776974636820746F204C6151
:1004C00079657220302D390A47524156453A095311
:1004D000776974636820746F204C6179657220308D
:1004E0002028616C7465726E617465290A423A094C
:1004F0004A756D7020746F20426F6F746C6F616409
:1005000065720A4553433A094A756D7020746F202D
:10051000426F6F746C6F616465722028616C7465E2
:10052000726E617465290A453A095072696E7420C9
:10053000454550524F4D2053657474696E67730A78
:100540004253504143453A09436C65617220454529
:1005500050524F4D0A4E3A094E4B524F20546F673E
:10056000676C650A000A002575002E6C6576656C5F
:100570003A20000A002575002E656E61626C653AAE
:1005800020000A0025303258006261636B6C696795
:1005900068745F636F6E6669672E7261773A2000D8
:1005A0000A002575002E6E6B726F3A20000A002536
:1005B00075002E737761705F6261636B736C61733A
:1005C000685F6261636B73706163653A20000A0063
:1005D0002575002E737761705F67726176655F6560
:1005E00073633A20000A002575002E6E6F5F6775F1
:1005F000693A20000A002575002E737761705F72DA
:10060000616C745F726775693A20000A0025750095
:100610002E737761705F6C616C745F6C6775693A9B
:1006200020000A002575002E737761705F72637475
:100630006C5F726775693A20000A002575002E7399
:100640007761705F6C63746C5F6C6775693A2000EA
:100650000A002575002E636170736C6F636B5F74A5
:100660006F5F636F6E74726F6C3A20000A002575BD
:10067000002E737761705F636F6E74726F6C5F636F
:100680006170736C6F636B3A20000A00253032583A
:10069000006B65796D61705F636F6E6669672E725E
:1006A00061773A20000A002575002E6D6F7573651D
:1006B0003A20000A002575002E6B6579626F617221
:1006C000643A20000A002575002E6D617472697805
:1006D0003A20000A002575002E656E61626C653A4D
:1006E00020000A00253032580064656275675F6338
:1006F0006F6E6669672E7261773A20000A00257571
:100700000064656661756C745F6C617965723A202E
:10071000003F004E4B524F3A206F66660A004E4B28
:10072000524F3A206F6E0A000A6D6F7573653A205A
:100730006F66660A000A6D6F7573653A206F6E0A00
:10074000000A6B6579626F6172643A206F66660AAF
:10075000000A6B6579626F6172643A206F6E0A00FD
:100760000A6D61747269783A206F66660A000A6DD4
:1007700061747269783A206F6E0A000A6465627566
:10078000673A206F66660A000A64656275673A20F8
:100790006F6E0A000A0A4A756D70696E6720746F81
:1007A00020626F6F746C6F616465722E2E2E200054
:1007B000433E2000436C656172696E672045455079
:1007C000524F4D0A006565636F6E6669673A0A00AD
:1007D0007267626C696768742074696D6572206401
:1007E000697361626C652E0A007267626C69676882
:1007F000742074696D657220656E61626C65642E2B
:100800000A007267626C6967687420736574206897
:100810007376205B4E4F454550524F4D5D3A202533
:10082000752C25752C25750A007267626C696768DE
:10083000742073657420687376205B454550524F71
:100840004D5D3A2025752C25752C25750A0072679B
:10085000626C69676874207261696E626F77207379
:100860006574206873763A2025642C25642C2564F1
:100870002C25750A007267626C6967687420646968
:100880007361626C65205B454550524F4D5D3A2067
:100890007267626C696768745F636F6E6669672E02
:1008A000656E61626C65203D2025750A0072676285
:1008B0006C6967687420656E61626C65205B454594
:1008C00050524F4D5D3A207267626C696768745F81
:1008D000636F6E6669672E656E61626C65203D2090
:1008E00025750A007267626C6967687420746F67A7
:1008F000676C65205B454550524F4D5D3A207267ED
:10090000626C696768745F636F6E6669672E656E97
:1009100061626C65203D2025750A007267626C6912
:10092000676874206D6F6465205B4E4F454550527B
:100930004F4D5D3A2025750A007267626C696768E1
:1009400074206D6F6465205B454550524F4D5D3A94
:100950002025750A007267626C696768745F696E4A
:100960006974207267626C696768745F636F6E6632
:1009700069672E6D6F6465203D20302E20577269A7
:1009800074652064656661756C742076616C75654C
:100990007320746F20454550524F4D2E0A007267E8
:1009A000626C696768745F696E6974206565636FFE
:1009B0006E666967206973206E6F7420656E616270
:1009C0006C65642E0A007267626C696768745F699F
:1009D0006E6974207374617274210A007267626CAC
:1009E000696768745F696E69742063616C6C6564C3
:1009F0002E0A007267626C696768745F636F6E6667
:100A000069672E7370656564203D2025640A007255
:100A100067626C696768745F636F6E6669672E767C
:100A2000616C203D2025640A007267626C6967680A
:100A3000745F636F6E6669672E736174203D202555
:100A4000640A007267626C696768745F636F6E66E0
:100A500069672E687565203D2025640A0072676805
:100A60006C696768745F636F6E6669672E6D6F642B
:100A700065203D2025640A007267626C69676874AE
:100A80005F636F6E6669672E656E61626C65203D9F
:100A90002025640A007267626C696768745F636F1F
:100AA0006E66696720454550524F4D3A0A001E0F49
:100AB0000500047F3F1F643214643214783C1E1E0C
:100AC000140A052223252628292A2C2D2F303233DB
:100AD0003536383A3B3D3E4042434547494A4C4E05
:100AE0005051535557595A5C5E6062646668696B31
:100AF0006D6F71737577797B7D7F81838587898A37
:100B00008C8E90929496989A9C9E9FA1A3A5A7A83C
:100B1000AAACAEAFB1B3B4B6B8B9BBBCBEBFC1C26C
:100B2000C3C5C6C7C9CACBCCCDCED0D1D2D2D3D4FF
:100B3000D5D6D7D7D8D9D9DADADBDBDBDCDCDCDC1D
:100B4000DCDDDDDDDDDCDCDCDCDCDBDBDBDADAD9EB
:100B5000D9D8D7D7D6D5D4D3D2D2D1D0CECDCCCB6D
:100B6000CAC9C7C6C5C3C2C1BFBEBCBBB9B8B6B48B
:100B7000B3B1AFAEACAAA8A7A5A3A19F9E9C9A981B
:100B8000969492908E8C8A89878583817F7D7B79EC
:100B9000777573716F6D6B6968666462605E5C5ACD
:100BA0005957555351504E4C4A4947454342403E90
:100BB0003D3B3A3836353332302F2D2C2A29282622
:100BC000252322FFAA7F55406261636B6C696768C9
:100BD0007420627265617468696E6720646973610C
:100BE000626C650A006261636B6C6967687420629D
:100BF0007265617468696E6720656E61626C650A12
:100C0000006261636B6C696768742062726561740D
:100C100068696E6720746F67676C653A2025750A8E
:100C2000006261636B6C6967687420737465703A05
:100C30002025750A006261636B6C696768742064C3
:100C4000697361626C650A006261636B6C696768F5
:100C50007420656E61626C650A006261636B6C6929
:100C600067687420746F67676C653A2025750A00A1
:100C70006261636B6C696768742064656372656147
:100C800073653A2025750A006261636B6C69676859
:100C90007420696E6372656173653A2025750A0078
:100CA0000000000000000000000000010102030439
:100CB0000506080A0C0F1114181C2024292E33399C
:100CC0003F464C535B626A7179818A929AA2AAB2BA
:100CD000B9C1C8CFD5DCE1E7EBF0F4F7FAFCFDFED3
:100CE000FFFEFDFCFAF7F4F0EBE7E1DCD5CFC8C17D
:100CF000B9B2AAA29A928A8179716A625B534C4610
:100D00003F39332E2924201C1814110F0C0A080611
:100D100005040302010100000000000000000000C3
:100D200000010101010101010101020202020202AE
:100D30000202020303030303030303040404040481
:100D40000404050505050506060606060707070748
:100D50000708080808090909090A0A0A0B0B0B0CFD
:100D60000C0C0D0D0D0E0E0E0F0F0F10101111119A
:100D7000121213131414151516161717181819191B
:100D80001A1A1B1B1C1D1D1E1E1F20202122222380
:100D90002424252626272829292A2B2C2D2D2E2FC1
:100DA00030313232333435363738393A3B3C3D3ED8
:100DB0003F404142434445464748494A4C4D4E4FC7
:100DC00050515354555658595A5B5D5E5F61626489
:100DD000656668696B6C6D6F7072737577787A7B16
:100DE0007D7E8082838587888A8C8E8F919395966D
:100DF000989A9C9EA0A2A3A5A7A9ABADAFB1B3B58D
:100E0000B7BABCBEC0C2C4C6C9CBCDCFD1D4D6D868
:100E1000DBDDDFE2E4E7E9EBEEF0F3F5F8FAFDFF06
:100E20000A002530325820006B6579626F61726468
:100E30005F7265706F72743A20000A002530325874
:100E4000006B6579626F6172645F7365745F6C6576
:100E5000643A20004F6E6573686F743A2061637462
:100E60006976653A2025640A0064656C5F6B657974
:100E70005F6269743A2063616E27742064656C3A1E
:100E800020253032580A006164645F6B65795F62C7
:100E900069743A2063616E2774206164643A202586
:100EA0003032580A005B735D004B6579626F617286
:100EB000642073746172742E0A005B575D005B538B
:100EC0005D005B525D005B445D005B435D001803A9
:100ED00041006E00670065006C002000570069004B
:100EE0006E00670073000000200364006F00720052
:100EF000790061006E005F0061006E0064005F00B9
:100F00006E006D003100370000000403090409027F
:100F10005B00030100A0FA090400000103010100C5
:100F20000921110100012240000705810308000A80
:100F30000904010001030000000921110100012240
:100F40006D000705820320000A0904020002030065
:100F5000000009211101000122220007058303205E
:100F60000001070503032000011201100100000029
:100F700008EDFE60600100010200010631FF097406
:100F8000A1010975150026FF009520750881020949
:100F900076150026FF00952075089102C00501090D
:100FA00080A101850319012AB700150126B7009514
:100FB0000175108100C0050C0901A101850419010A
:100FC0002AA002150126A002950175108100C00516
:100FD000010906A1018505050719E029E715002586
:100FE000019508750181020507190029EF150025F3
:100FF0000195F0750181020508190129059505750E
:10100000019102950175039101C005010906A10135
:10101000050719E029E715002501950875018102EA
:101020009501750881010507190029FF150026FFA4
:1010300000950675088100050819012905950575B3
:10104000019102950175039101C011241FBECFEFDC
:10105000DAE0DEBFCDBF04B603FE27C080911D03DA
:1010600090911E03A0911F03B09120038730904BF5
:10107000A740B04BD1F410921D0310921E031092A2
:101080001F031092200314BE84B7877F84BF0FB65E
:10109000F894A89580916000886180936000109218
:1010A00060000FBEE0E0F8E3099511E0A0E0B1E0D8
:1010B000EEE1FDE602C005900D92A43DB107D9F71F
:1010C00023E0A4EDB1E001C01D92AD31B207E1F71C
:1010D0000E94622F0C941F360C940000FF93EF9334
:1010E000E091D401F091D501309709F00995EF9185
:1010F000FF910895FC018591803011F0EFDFFBCF67
:101100000895FF27E0E230E247FF0CC0419597FFCA
:1011100009C0EDE26095709580959095611D711DF7
:10112000811D911D27FF02C0219530E350E2AA27BF
:10113000660F771F881F991FAA1FA41710F0A41B02
:1011400063955A95A9F7AA3008F0A95FA05DAF93FF
:10115000F395611571058105910541F7ED3211F4A3
:10116000EF93F395F21718F43F93F395FBCF8F911C
:10117000B5DFFA95E1F70895E991F991859180300D
:1011800021F0853219F0AADFF9CF089520E0E89424
:1011900055915532C1F3503311F4689455915A3337
:1011A00048F4505390F3220F022E220F220F200DED
:1011B000250FF4CF0EF4219589919991533619F3A7
:1011C000533729F1533559F1BC0188279927E89401
:1011D0005C3621F48991999168945591543639F48B
:1011E00046EF7EF077FF0DC08FEF9FEF0AC05537B7
:1011F0004AE039F0583540E121F0523642E009F03A
:101200000895FF93EF937DDFEF91FF91B7CFFF93A9
:10121000EF93FC0181918030B9F360DFFBCFFF9346
:10122000EF9368DFF1CFDF93CF93CDB7DEB725968D
:10123000A3DFCF91DF91089581E0089581E00895C3
:101240000C941E0908950C9422091F93CF93DF93E9
:1012500000D000D00F92CDB7DEB749835A836B839D
:1012600030912C0289819A8131111DC06623B9F019
:101270002223A9F00E945C29182F682F89819A8166
:101280000E94082969817A81812F0F900F900F9019
:101290000F900F90DF91CF911F910C94400A0E9404
:1012A0003429182FEFCF0E945C2969817A81EDCF14
:1012B000FC01262F408151816281738184810C94CD
:1012C0002509CF93DF93EC0160E00E945809BE012D
:1012D000DF91CF910C9423090E94430C0E94310AA4
:1012E0000E94D41C0C94680C0C946B0C08950E9402
:1012F00072240E9476092FEF84E39CE02150804005
:101300009040E1F700C000000C943F2D0F931F9315
:10131000CF93DF938C0161E00E945809EC01B80182
:101320000E942009882309F444C0B801CE010E941C
:10133000BB1B8823F1F1B801CE010E94821D8823D6
:10134000C1F1B801CE010E94D41D882391F1B801EA
:10135000CE010E94F71E882361F1B801CE010E94E0
:101360004B19882331F1F8018281882361F0CF3D48
:10137000FCE5DF07B1F170F4C115ECE5DE07B9F06B
:10138000C130DC45E1F0C801DF91CF911F910F9191
:101390000C941C09CC358DE5D80749F1CD35DC0717
:1013A00019F1CB35DD4579F70E941F2AECCF0E9459
:1013B000770980E0DF91CF911F910F91089590916F
:1013C000B502892F8E7F90FF81608093B50280FFE8
:1013D00005C08EE092E00E947A08EBCF8CEF91E09E
:1013E000FACF0E94872BE5CF0E94162ACCCF0E940D
:1013F000222AC9CF829590E09C01220F331F220F31
:10140000331F2C7C95958795959587958373282B0D
:1014100030E0C901880F991F8A7A3595279525757F
:10142000822B0895CF93DF93D92F0E94FA09C82FFA
:101430008D2F0E94FA099C2FDF91CF910895089576
:101440000C941F0A81E00895CF93C82F0E94220AAE
:10145000882319F0C1FD03C02A9ACF9108952A98D4
:10146000FCCF229A2A9A0895CF93C82F0E94200A6F
:101470008C2FCF910C94240A90E080E00895089579
:10148000972F70E02EE0929F600D711D1124FB01DB
:1014900098E3899FE00DF11D1124EE0FFF1FE45525
:1014A000FF4F859194910895FC01EE0FFF1FE15EBF
:1014B000FD4F859194910895CF93DF930E94400A48
:1014C0000E94680BEC01811520E5920708F041C0ED
:1014D000811530E4930708F0B4C0803E910518F5FB
:1014E000803C910508F09DC0883A910570F4853ADA
:1014F000910508F08EC081309105F9F00097E9F070
:101500000497D8F4D0E0C0E018C08F3B9105D0F725
:10151000C85AD0E0CC0FDD1FCB5DDE4F0990D881DB
:10152000C02DD4640AC08115904258F4C11581E0E1
:10153000D80718F4C83ED10528F7CE01DF91CF9126
:101540000895C11590E3D90708F071C0CE019F70CE
:101550006AC0811525E5920758F5811534E5930792
:1015600008F09EC0811542E5940750F4C11581E54D
:10157000D80708F469C0DC2FCC27C16FD06ADDCF53
:10158000982F969596959E0123703327C115D345C4
:1015900008F077C0C1E0D0E002C0CC0FDD1F2A9573
:1015A000E2F720E2929FC0011124C82BD92B67C01B
:1015B000C11589E5D807A8F4C11598E5D90708F041
:1015C00074C0C11526E5D20708F09CCF8C2F0E946D
:1015D000FF0BC82FD0E0DC2FCC27CC27DF71D062E7
:1015E000ACCFC1153AE5D30708F464C0CE019056DC
:1015F0008115904208F086CF8D2F8F710E94FF0BCE
:1016000090E0982F882788279F719C012C2BE90157
:10161000E6CFC55AD0E0CD5ADE4FC881D0E0D064C5
:101620008CCF805C91090E94540AEC0186CFCE01D8
:101630009927D3FF03C0EC01D86C7FCFEC01D06CAD
:101640007CCFDF70D06A79CFCE01E4E096958795A4
:10165000EA95E1F783702C2F26952695237090E26A
:10166000299F90011124382B8C2F8370C1E0D0E08A
:1016700002C0CC0FDD1F8A95E2F7C22BD32BDC68AA
:101680005CCFC1E0D0E002C0CC0FDD1F2A95E2F7AD
:1016900030E2939FC0011124C82BD92BDA684DCFBB
:1016A000D82FCC27C46FD06A48CFDC2FCC27C06F8F
:1016B000D06A43CF8C2F8F700E94FF0B34E0D695F9
:1016C000C7953A95E1F7CF709C2FEC01D06935CFE3
:1016D00082389105B1F1B0F48133910509F475C0F8
:1016E00048F48932910509F469C08A32910509F4F8
:1016F00073C008958533910509F459C08933910564
:1017000001F10895833E9105A9F138F4803E9105D9
:10171000F9F0823E910549F10895863E9105A9F1BF
:10172000873E9105C9F1843E910519F52091DD02AE
:1017300021FF1FC08091DC0284FD14C087EE90E081
:1017400008952091DC022370A1F080EE90E00895CE
:101750002091DC0220FD47C03091DD0230FF09C03E
:1017600024FF44C090E080E004C02091DC0222FD10
:10177000F7CF08952091DC0222FD3BC03091DD02BD
:1017800030FDE3CF24FFF5CFEDCF2091DC0223FF26
:10179000F0CF24FDE7CFD2CF2091DC0223FD2CC077
:1017A0003091DD0231FFEECF84EE90E0089520917C
:1017B000DC0225FFDECF89E290E008952091DC0273
:1017C00025FFD7CF85E390E008952091DC0226FF26
:1017D000D0CF8AE290E008952091DC0226FFC9CFA5
:1017E00081E390E0089589E390E0089583EE90E02E
:1017F000089582EE90E0089586EE90E0089590912D
:10180000DC0292FF06C0282F28712830F9F4877F68
:10181000846093FF06C0282F28712831F1F4877E59
:1018200084612091DD0220FF06C0382F38713830E6
:10183000D9F4877F816021FF06C0282F28712831C5
:10184000D1F4877E816194FD877E0895282F2471CD
:101850002430F9F68B7F8860DCCF282F2471243167
:1018600001F78B7E8861DDCF382F3171313019F768
:101870008E7F8860E0CF282F2171213121F78E7E65
:101880008861E1CF08950E94E22A811102C00E947E
:10189000872B0E94ED2A8093B5020E94F52A90932F
:1018A000DD028093DC020E94420C0E94F12A682F24
:1018B00070E090E080E00E940A28609188027091B8
:1018C000890280918A0290918B020C944428089599
:1018D0000C94670C08950C946A0CE82FF0E0EE0F5E
:1018E000FF1FEA51FD4F808191810895CF92DF92D1
:1018F000EF92FF920F931F93CF93DF938FE292E0CB
:101900000E947A0886EEE82E82E0F82ED0E0C0E051
:101910009AE2C92E92E0D92E01E212E0DF93CF9332
:10192000DF92CF920E94130987E292E00E947A0828
:10193000F701819191917F010E94120A9F938F93E9
:101940001F930F930E9413098FE192E00E947A087F
:1019500021968DB79EB708960FB6F8949EBF0FBE1E
:101960008DBFC430D105D1F6DF91CF911F910F917A
:10197000FF90EF90DF90CF90089580EA8A95F1F77D
:10198000089500C008950C94BD0CF894E82FE295DA
:10199000EF70F0E031A1282F2F7081E090E001C0BE
:1019A000880F2A95EAF7982F9095932391A392A1F7
:1019B000892B82A378940895CF93DF9383E90E94C3
:1019C000C50C82E90E94C50C84EF0E94C50C85EF0E
:1019D0000E94C50CC6E5D1E089910E94C50C81E04A
:1019E000C436D807C9F71092DF021092DE021092B7
:1019F000E7021092E6021092E1021092E0021092C9
:101A0000E9021092E8021092E3021092E2021092B0
:101A1000EB021092EA021092E5021092E402109298
:101A2000ED021092EC0284E00E949A0DDF91CF91BA
:101A30000C946C09AF92BF92DF92EF92FF920F93DA
:101A40001F93CF93DF93C4E6D1E00EED12E0D12CCB
:101A5000EE24E394F12C8991F894E82FE295EF704D
:101A6000F0E021A18F70A70102C0440F551F8A9595
:101A7000E2F7CA01922F982B91A392A18095892316
:101A800082A378940E94C10CE6E5F1E030E020E00A
:101A9000B12CA12C4191A42FA295AF70B0E09096EB
:101AA0008C9190E04F7002C0959587954A95E2F72A
:101AB00080FD3BC0C701022E02C0880F991F0A9407
:101AC000E2F7A82AB92A2F5F3F4F2E30310511F7D0
:101AD000FE01319780810E94C50C0E94C30CF80161
:101AE00080819181A816B90619F1B182A08281E0A6
:101AF000D82A0E5F1F4FF1E0C836DF0709F0ABCFE1
:101B00002D2D44E066EE72E08EED92E00E949B0D7A
:101B10000E9474098D2DDF91CF911F910F91FF903D
:101B2000EF90DF90BF90AF90089590E080E0C9CF34
:101B300080E0DECF0895FF920F931F93CF93DF9342
:101B4000F82E092F162FD72FC42F222349F081E01A
:101B50008093D8010E94F42C9093D7018093D601F2
:101B60008091D8018823A1F08091D6019091D7016E
:101B70000E940C2D069760F0EF2DF02FA12FBD2FA6
:101B800090E080E0D0E08C179D0744F01092D801DF
:101B9000DF91CF911F910F91FF9008952191319185
:101BA0002D933D930196EFCFCF93C82F1F928F9324
:101BB0008CE492E09F938F930E94130961E070E0A0
:101BC00080E090E004C0660F771F881F991FCA95B8
:101BD000D2F70E940A280F900F900F900F90CF918C
:101BE0000C947224CF93DF93EBEFE80FEF3308F000
:101BF0007CC2F0E0EF5DF94C0C94183585EC97E071
:101C00000E947A0881E097E00E947A080E94F12AF7
:101C10001F928F938EEF96E09F938F930E941309EC
:101C20008CEF96E00E947A080E94ED2AC82F89EE78
:101C300096E00E947A081F92CF9384EE96E09F93DD
:101C40008F930E94130982EE96E00E947A0888ED35
:101C500096E00E947A088C2F81701F928F9385EDF9
:101C600096E09F938F930E94130983ED96E00E9464
:101C70007A0889EC96E00E947A08C1FB882780F9EF
:101C80001F928F9386EC96E09F938F930E94130987
:101C900084EC96E00E947A0888EB96E00E947A082D
:101CA000C2FB882780F91F928F9385EB96E09F9364
:101CB0008F930E94130983EB96E00E947A088AEAC8
:101CC00096E00E947A08C3FBCC27C0F91F92CF93FD
:101CD00087EA96E09F938F930E94130985EA96E026
:101CE0000E947A080E94F52AEC0181E996E00E94A0
:101CF0007A08DF93CF938CE896E09F938F930E94AE
:101D000013098AE896E00E947A0881E796E00E942B
:101D10007A088C2F81701F928F938EE696E09F93A6
:101D20008F930E9413098DB79EB780960FB6F894D3
:101D30009EBF0FBE8DBF8CE696E00E947A0885E5B7
:101D400096E00E947A08C1FB882780F91F928F9342
:101D500082E596E09F938F930E94130980E596E0B9
:101D60000E947A088EE396E00E947A088D2F817097
:101D70001F928F938BE396E09F938F930E9413099A
:101D800089E396E00E947A0887E296E00E947A084A
:101D9000D695D1701F92DF9384E296E09F938F9344
:101DA0000E94130982E296E00E947A0880E196E0A0
:101DB0000E947A08C2FB882780F91F928F938DE0DA
:101DC00096E09F938F930E9413098BE096E00E9408
:101DD0007A0889EF95E00E947A08C3FB882780F98A
:101DE0001F928F9386EF95E09F938F930E94130924
:101DF00084EF95E00E947A088AEE95E00E947A08C6
:101E0000C4FB882780F91F928F9387EE95E09F93FC
:101E10008F930E94130985EE95E00E947A0883ED66
:101E200095E00E947A08C5FB882780F91F928F935E
:101E300080ED95E09F938F930E9413098EEC95E0BF
:101E40000E947A0882EB95E00E947A08C6FB8827F8
:101E500080F91F928F938FEA95E09F938F930E9452
:101E600013098DB79EB780960FB6F8949EBF0FBE2C
:101E70008DBF8DEA95E00E947A0885EA95E00E9480
:101E80007A08C7FBCC27C0F91F92CF9382EA95E06E
:101E90009F938F930E94130980EA95E00E947A082D
:101EA0000E94181AC82F89E895E00E947A081F92AC
:101EB000CF9384E895E09F938F930E94130982E863
:101EC00095E00E947A0888E795E00E947A088C2FB6
:101ED00081701F928F9385E795E09F938F930E9467
:101EE000130983E795E00E947A088AE695E00E944C
:101EF0007A08C695C695C6951F92CF9387E695E05A
:101F00009F938F930E94130985E695E00E947A08BB
:101F10008DB79EB740960FB6F8949EBF0FBE8DBF8B
:101F200081E01CC084EB97E00E947A080E94872B16
:101F3000F7CF83EB93E00E947A08F2CF8091B5024D
:101F4000807F8093B50288E993E00E947A0880EB55
:101F500097E00E947A0881E08093D901DF91CF91C8
:101F6000089584E997E00E947A080E947709D8CF03
:101F70009091B502892F8E7F90FF81608093B5028A
:101F800080FF03C088E897E0D6CF8BE797E00E94F8
:101F90007A088091B502817F8093B502C1CF90917C
:101FA000B502892F8D7F91FF82608093B50281FFFA
:101FB00008C08EE697E00E947A088091B5028160A1
:101FC000EBCF80E697E0B7CF9091B502892F8B7F5A
:101FD00092FF84608093B50282FF03C081E597E0A1
:101FE000EACF81E497E0A7CF9091B502892F877F50
:101FF00093FF88608093B50283FF03C085E397E079
:10200000DACF88E297E097CF89E893E00E947A08D8
:1020100086E493E00E947A088FE293E00E947A08B7
:102020008DEF92E00E947A0882ED92E084CF84ECFA
:1020300092E00E947A080E94261F1F928F938AEADC
:1020400092E09F938F930E941309809124011F9225
:102050008F9383E992E09F938F930E94130980915D
:10206000DB021F928F9380E892E09F938F930E94F0
:1020700013098091DC0287FB882780F91F928F93D8
:1020800088E692E09F938F930E9413090E94002D8F
:102090009F938F937F936F9381E592E09F938F93AC
:1020A0000E9413098DB79EB746960FB6F8949EBF4F
:1020B0000FBE8DBF35CF0E9472249091DC02892F14
:1020C00097FB87F980588093DC0287FF03C08EE17D
:1020D00097E031CF83E197E02ECF80E00E94D40DCE
:1020E0001FCF8953FBCF8D51F9CF81E197E00E943B
:1020F0007A0880E033CF80E008950C947B10CF9372
:10210000C82F8091D901882331F0813099F0109245
:10211000D90180E00DC00E94252A8232D1F78C2F90
:102120000E947B10811119C08C2F0E94F20D8170CA
:10213000CF9108950E94252A823289F38C2F0E9424
:102140007D10811119C0C431C9F050F4CB3061F059
:1021500086E492E00E947A0813C081E090E0E7CF25
:10216000C93261F0C833A1F788E993E00E947A0888
:1021700088E492E00E947A0881E0D9CF1092D901D8
:1021800080E0D5CFEF92FF920F931F93CF93DF9311
:10219000EB01E82FD11110C0442321F0F0E0E05E04
:1021A000F24FE4916E2F7E2F8E2FDF91CF911F91F2
:1021B0000F91FF90EF9008950D2F10E0282F30E041
:1021C000442329F0205E324FF901249130E0F6E0FB
:1021D000CF9FC0011124EFEFF0E0BF010E94CE3489
:1021E000AB018C2F90E0880F991FA5E5A49FB0014B
:1021F000A59F700D1124861B970B982F990F980F90
:10220000BF01601B710B629FD001639FB00D729F75
:10221000B00D11248B2F9D9FB0011124672F7727BC
:10222000EF01C61BD70BBE01629FE001639FD00D7B
:10223000729FD00D11247F01E91AF108E09EB001D0
:10224000E19E700DF09E700D1124672F7727E61B1D
:10225000F70BE29F8001E39F100DF29F100D1124F8
:10226000E12F722F4230510599F048F44115510584
:1022700069F04130510581F0EB2F8D2F07C04430BC
:10228000510569F080F046305105B1F76E2F8DCFC2
:10229000E22F7B2F812FFACFE22F7D2FF7CFEB2F6D
:1022A000822F712FF3CF7B2F822FED2FEFCF41E0C5
:1022B0000C94C21008950C945711CF93DF93762F8E
:1022C000E901682F842F0E945B11798368838A83D8
:1022D000DF91CF9108958091EE02982F9E7F29F48F
:1022E000817082608093EE0208958635E8F38170F4
:1022F0008465F8CF88E090E00C94C035CF92DF92EF
:10230000EF92FF926B017C010E946B11B701A60155
:1023100088E090E0FF90EF90DF90CF900C94DE3556
:10232000EEEEF2E083E0808311828FEF828383837D
:10233000148260817181828193810C947E118091DD
:10234000B50280FF76C085E99AE09F938F930E9443
:1023500013098091B5020F900F9080FF6AC08091A1
:10236000EE0281701F928F9388E79AE09F938F937C
:102370000E9413098091B5020F900F900F900F905B
:1023800080FF57C08091EE0286951F928F938DE556
:102390009AE09F938F930E9413098091B5020F904A
:1023A0000F900F900F9080FF44C08091EF021F921A
:1023B0008F9383E49AE09F938F930E9413098091F7
:1023C000B5020F900F900F900F9080FF32C0809158
:1023D000F0021F928F9389E29AE09F938F930E945D
:1023E00013098091B5020F900F900F900F9080FF0E
:1023F00020C08091F1021F928F938FE09AE09F930B
:102400008F930E9413098091B5020F900F900F9047
:102410000F9080FF0EC08091F2021F928F9383EF86
:1024200099E09F938F930E9413090F900F900F9044
:102430000F9008958091EE0280FF02C08695089566
:1024400080E008959091F202933018F49F5F90938A
:10245000F202882351F06091EE027091EF028091B8
:10246000F0029091F1020C947E11089581E00C9499
:1024700022129091F202992319F091509093F20256
:10248000882351F06091EE027091EF028091F0028A
:102490009091F1020C947E11089581E00C94391210
:1024A00070E00C94EA1C609108018091EE0280FFBC
:1024B0000AC08091070123E0829FC00111248D5042
:1024C0009D4F0C9450128091090190910A0123E0D4
:1024D000829FF0011124ED50FD4F891750F71182B2
:1024E000108212828F5F3396F8CF9091EE0290FFA8
:1024F00014C09091090120910A0133E0939FF001EB
:102500001124ED50FD4F921710F00C94531281835B
:10251000608342839F5F3396F6CF0895CF93DF9316
:1025200000D00F92CDB7DEB79091EE0290FF0AC0B7
:102530009E012F5F3F4F0E945D114B8169818A810F
:102540000E9475120F900F900F90DF91CF91089518
:10255000CF93DF93EC01EC81F0E0ED53F54F449124
:10256000EEEEF2E0628181810E948E128C818F5F9B
:102570008C83DF91CF910895CF93DF93EC01EEEE42
:10258000F2E0438162818C810E948E128C818F5F88
:102590008C83DF91CF9108950F931F93CF93DF9397
:1025A00000D00F92CDB7DEB78C018091DA01811196
:1025B0000AC09E012F5F3F4F4FEF6FEF0E945D11EA
:1025C0008A818093DA01F8016481613069F0809139
:1025D000DA0140E0662361F040E0623011F440919E
:1025E000DA0180E060E004C06091DA0140E080E060
:1025F0000E947512F801848190E0019663E070E01A
:102600000E94E23484830F900F900F90DF91CF915E
:102610001F910F9108954F925F926F927F928F92C8
:102620009F92AF92BF92CF92DF92EF92FF920F9361
:102630001F93CF93DF9300D00F92CDB7DEB7182F43
:10264000D62E042F722E9091EE0290FF46C0E92FF5
:10265000E695AE2FB0E0A859BE4F8C9180930C0246
:102660009E7F923009F04DC09E012F5F3F4F812F1A
:102670000E945D114B8169818A810E9475121093BD
:10268000EF02D092F0020093F102772009F49CC08F
:102690006091EE027091EF028091F0029091F10250
:1026A0000E947E118091B50280FF17C08091F102D7
:1026B0001F928F938091F0021F928F938091EF026F
:1026C0001F928F9389E298E09F938F930E94130942
:1026D0000FB6F894DEBF0FBECDBF0F900F900F90D6
:1026E000DF91CF911F910F91FF90EF90DF90CF90EE
:1026F000BF90AF909F908F907F906F905F904F9022
:102700000895823019F40091F102B9CF863019F49E
:102710001091EF02B4CF8930D9F3893109F0AFCFEE
:10272000E9518E2F8170682E8E2F80958170C82E72
:10273000E695F0E0ED53F44FE590F490412CFF2442
:102740009EE4A92E98E0B92E60910B01461618F070
:102750000E94531294CF842C912C8E9CC0018F9C8C
:10276000900D9E9C900D112470E00E94CE34512E4D
:10277000611028C0560E8091B50280FF11C0FF92F3
:10278000EF921F92CF921F925F921F924F92BF9231
:10279000AF920E9413090FB6F894DEBF0FBECDBFF3
:1027A00020910901820E911C9401220F331F280DE4
:1027B000391D2D503D4F402F6D2D852D0E945D11EF
:1027C0004394C2CF561AD7CF8091B50280FF85CFF0
:1027D0001F920F931F92DF921F921F9382E098E047
:1027E00073CFEEEEF2E09181282F438162818AE07F
:1027F000890F0C940B1381E00C94F113EEEEF2E0D0
:102800009181282F4381628186EF890F0C940B13ED
:1028100081E00C94FE13EEEEF2E0628121E1620FA2
:1028200008F46FEF282F438181810C940B1381E012
:102830000C940B14EEEEF2E0628121E1621B08F4CD
:1028400060E0282F438181810C940B1381E00C946C
:102850001A14EEEEF2E0438121E1420F08F44FEF4B
:10286000282F628181810C940B1381E00C94291430
:10287000EEEEF2E0438121E1421B08F440E0282F14
:10288000628181810C940B1381E00C94381420E058
:102890000C940B13EF92FF921F93CF93DF93EC01F5
:1028A00010E0EE24EA94F12C60910B01161770F001
:1028B0000E9453129A818C8190FF27C08F5F8C8376
:1028C000DF91CF911F91FF90EF9008952091090122
:1028D000422F410F5527551FCA019A01220F331F5E
:1028E000280F391F2D503D4F70E0C7010E94E23480
:1028F000962F8C814091F1026091F002199F800D1A
:1029000011240E945D111F5FCFCF8150D8CFBF929D
:10291000CF92DF92EF92FF920F931F93CF93DF93AB
:10292000FC0182810FEF80FF01E010E080910B013C
:102930001817C0F00E9453128091DC01013009F099
:1029400051C0811102C080910B0181508093DC0144
:10295000DF91CF911F910F91FF90EF90DF90CF907B
:10296000BF900895C0910901C12ED12CCC0DDD2D51
:10297000D11DCE01880F991FC80FD91FCD50DD4F33
:10298000198218821A8234E0E32EF12CB12C809146
:10299000DC018B0D893004F18770082E000C990B37
:1029A000C816D90691F48091F1028E9DA0018F9DE9
:1029B000500D112455954795559547959E01609169
:1029C000F0028091EF020E945D11B00EF1E0EF1A6B
:1029D000F108E9F61F5FAACF87FFDFCF90910B01C7
:1029E000890FDBCF90E0019660910B0170E00E94AF
:1029F000E234ACCF0F931F93CF93DF938091090103
:102A000090910A0123E0829FF0011124ED50FD4FC7
:102A1000891740F1C0E0D3E060910B01C61740F187
:102A20000E945312209105018091DB01820F809357
:102A3000DB0190910601920F90930601191654F450
:102A4000082E000C990B40910B014150550B841737
:102A500095071CF0219520930501DF91CF911F91DF
:102A60000F9108951182108212828F5F3396D0CF1A
:102A70000C2F10E070E0C8010E94E234209109019F
:102A8000820F482F50E02091DB01022E000C330B07
:102A900002171307BCF020910601022E000C330B25
:102AA000201731077CF08D9F900111242D503D4F50
:102AB0004091F1026091F0028091EF020E945D115D
:102AC000CF5FAACFFA01EE0FFF1FE40FF51FED5005
:102AD000FD4F118210821282F3CF8F929F92AF929C
:102AE000BF92CF92DF92EF92FF920F931F93CF93FB
:102AF000DF93EC014C81042F10E09801D8010E9473
:102B000026359B01AC010E943C354B015C01E0E2A3
:102B1000F0E0E01BF10BA5E5B0E0AC019B010E94E9
:102B20003C356B017C019F01DF010E941E359B013A
:102B3000AC010E9447359B01AC01280D391D4A1D8F
:102B40005B1DC701B6010E94F634F22E822F90E081
:102B500039E23F1560F143E0249F9001112435953F
:102B60002795122F109500E085E5E82EEF1880914B
:102B70000B01081758F10E9453129C8181E09923A0
:102B800019F0903219F48FEF8093040180910401C1
:102B9000890F8C83DF91CF911F910F91FF90EF9060
:102BA000DF90CF90BF90AF909F908F90089525E5D4
:102BB00030E0B901681B790B9B01220F331F260FF0
:102BC000371F37FFCCCF2F5F3F4FC9CF8E2D01FD71
:102BD0008F2D20910901622F600F7727771F9B01AE
:102BE000220F331F260F371F2D503D4F412F60916D
:102BF000F0020E945D110F5FBACF0F931F93CF9326
:102C0000DF93EC0110E000E090910B0190171106AA
:102C100009F06CF40E9453128C8190E0019681704F
:102C200099278C83DF91CF911F910F910895209167
:102C30000901A801420F511D9A01220F331F240FD1
:102C4000351F2D503D4F4C816091F0028091EF0275
:102C500096959017110651F04CF0442349F040919D
:102C6000F1020E945D110F5F1F4FCECF4423B9F3D5
:102C700040E0F7CF4F925F926F927F928F929F9238
:102C8000AF92BF92CF92DF92EF92FF920F931F937A
:102C9000CF93DF93FC016280448081E08483E3EC86
:102CA000FAE07490E2E4FBE0E491812C75E0972E69
:102CB000F2E0CF2EDD24D394AA24AA94B12C55247B
:102CC0005A94E7190E2F10E080910B01881690F0AE
:102CD000DF91CF911F910F91FF90EF90DF90CF90F8
:102CE000BF90AF909F908F907F906F905F904F902C
:102CF0000C945312E82CF12C82E0861568F09E9C0F
:102D0000F0019F9CF00D1124E352FE4F8091EF02E1
:102D100080838091F0028183411023C09E9CF0014A
:102D20009F9CF00D1124E352FE4F138212822091DA
:102D30000901C701820F911D9C01220F331F280F2B
:102D4000391F2D503D4F9E9CF0019F9CF00D11248A
:102D5000E352FE4F4281618180810E945D11839424
:102D6000B3CF9E9CE0019F9CD00D1124C352DE4F37
:102D70008B818823E9F081508B83859DC0011124CC
:102D80006C8170E00E94CE34FB01FF27ED53F54FBC
:102D90008491E82FE719E59DC0011124B8010E9434
:102DA000CE348091F102689FB00111247A83BFCFA5
:102DB0000E949B352091F102269521582C9DA0015F
:102DC0002D9D500D1124452F5527841795070CF084
:102DD000AECF82E0861588F40E949B35B5010E9433
:102DE000E23488830E949B352091F0022695622F61
:102DF00070E00E94E234280F29839E9CF0019F9C82
:102E0000F00D1124E352FE4F12828091F102893CB1
:102E100058F088EC9E9CF0019F9CF00D1124E35229
:102E2000FE4F8483838383CF8431A0F784E1F2CF84
:102E30006091EE02669570E04BE050E08CE091E02E
:102E40000E94AB35892B19F481E080930D020E941A
:102E5000F42C90930602809305028091B50280FFC6
:102E600008C089EE97E09F938F930E9413090F90FB
:102E70000F90089510920D028091B50280FF08C056
:102E800080ED97E09F938F930E9413090F900F900E
:102E900008959091EE0290FF54C0917081113BC053
:102EA00092609093EE026623E9F16091EE027091D8
:102EB000EF028091F0029091F1020E947E118091C8
:102EC000B50280FF0FC08091EE0286951F928F930E
:102ED00089E399E09F938F930E9413090F900F90BD
:102EE0000F900F906091EE02669570E04BE050E01D
:102EF0008CE091E00E94AB35892B01F10E943A17DA
:102F000081E0809308024091F1026091F00280918B
:102F1000EF020C9447148B3210F09465C2CF880FE7
:102F2000982BBFCF8091B50280FFDCCF8091EE025D
:102F300086951F928F938BE199E0CCCF0E94181752
:102F4000DFCF0895682F9091EE02969581E0890F6A
:102F50008B3208F081E00C94491781E00C94A217A1
:102F6000682F9091EE0296958FEF890F09F48AE20F
:102F70000C94491781E00C94B01761E00C94491748
:102F80008091EE0281608093EE028091B50280FF15
:102F90000DC01F9281E08F938DEA98E09F938F93ED
:102FA0000E9413090F900F900F900F908091EE02E6
:102FB00086950C94BD1760E00C94491780910B0224
:102FC000811160C08091B50280FF14C08CED99E042
:102FD0009F938F930E9413098091B5020F900F90D9
:102FE00080FF08C086EC99E09F938F930E9413099D
:102FF0000F900F900E94E22A811110C08091B502BB
:1030000080FF08C08EE999E09F938F930E94130977
:103010000F900F900E94872B0E9490110E947A11AE
:103020006093EE027093EF028093F0029093F102AE
:103030006E7FC1F48091B50280FF08C085E599E0FC
:103040009F938F930E9413090F900F900E949011ED
:103050000E947A116093EE027093EF028093F00267
:103060009093F1020E946B110E949F1110920D0229
:103070008091EE0280FF03C086950E94DB1781E0FD
:1030800080930B0208958091EE028E7F8093EE0272
:103090006091EE027091EF028091F0029091F10246
:1030A0000E947E118091B50280FF0FC08091EE02D8
:1030B00081701F928F9385E798E09F938F930E9472
:1030C00013090F900F900F900F900E943A172FEF57
:1030D00080E792E0215080409040E1F700C000007E
:1030E0000C9453128091B50280FF10C08091EE02C3
:1030F000809581701F928F9384EE98E09F938F93B9
:103100000E9413090F900F900F900F908091EE0284
:1031100080FD0C9443180C94C0170F931F93CF930A
:10312000DF9380910D02882309F496C080910C02F0
:10313000E091EE02E695E81BE0930702823091F5FC
:10314000F0E0E154F54FE491CE2FD0E008EA12E12F
:1031500080910802882361F0109208020E94F42CEA
:10316000909306028093050210920A0210920902BF
:103170000E94F42CE0910502F09106028E1B9F0B39
:103180008F3F9F4708F068C0EC0FFD1FF0930602C9
:10319000E093050285E092E0F801DF91CF911F9165
:1031A0000F910994863049F4F0E0E454F54FE4912E
:1031B000CE2FD0E00CEB12E1CBCF893051F4E69565
:1031C000F0E0E754F54FE491CE2FD0E00AE414E1AB
:1031D000BFCF8F3051F4E695F0E0EA54F54FE4911B
:1031E000CE2FD0E007E814E1B3CF853149F4F0E009
:1031F000ED54F54FE491CE2FD0E00AEF14E1A8CFC3
:10320000C8E2D0E00DE615E1883109F4A1CF8332A0
:1032100039F4E1EBFAE0C591D4910CEC12E198CFCE
:10322000C4EFD1E00DEF15E1843209F491CFC0ED88
:10323000D7E00AE511E1853209F08ACF8E2F63E0ED
:103240000E94C234E92FF0E0E255F54FE491CE2F11
:10325000D0E00AE316E17CCFDF91CF911F910F916F
:103260000895FA01811101C0FB010994CF93DF9306
:10327000C82FD62F0E941A128C1740F00E941A12E3
:103280008D1720F4DF91CF910C94AD178C2FDF9127
:10329000CF910C94BD171F93CF93DF93EC01FB01EB
:1032A0001281112309F4C2C00E94252A8272CD3CEA
:1032B000FCE5DF0709F4A0C008F044C0C73CECE51A
:1032C000DE0709F485C0F0F4C43C9CE5D90709F495
:1032D00075C048F4C33CDC4509F46CC0812FDF9114
:1032E000CF911F910895C53C9CE5D90709F46BC0A7
:1032F00048E054E16BEF73E1C63CDC4579F70E948E
:1033000031195AC0CA3CFCE5DF0709F46BC068F408
:10331000C83CECE5DE0709F460C047E154E166E231
:1033200074E1C93CDC4559F3D9CFCB3C9CE5D907C6
:1033300009F45DC04DE452E166E372E1CC3CDC454A
:10334000F1F2CCCFC23DFCE5DF0709F464C098F48C
:10335000CF3C9CE5D90709F458C008F452C0C03DE1
:10336000FCE5DF0709F454C0C13DDC4509F0B6CFE8
:103370006EE089E01CC0C53D9CE5D90709F451C049
:1033800058F4C33DFCE5DF0709F448C0C43DDC4503
:1033900009F0A4CF88E136C0C63D9CE5D90709F401
:1033A00043C06AE285E2CE35DD4509F097CF0E9441
:1033B000361902C00E94721810E090CF4AEB57E114
:1033C0006DEA77E19CCF4DEA57E16AEB77E197CF61
:1033D0004BEF53E168E074E192CF46E254E167E1DC
:1033E00074E18DCF44E454E165E374E188CF45E3B3
:1033F00054E164E474E183CF46E352E16DE472E1A9
:103400007ECF81E00E94BD17D7CF65E082E0CFCFAD
:1034100068E086E0CCCF64E18FE0C9CF67E185E169
:10342000C6CF62E289E1C3CF83E2ECCF11E056CF91
:1034300086E090E00C94B835682F86E090E00C941C
:10344000CC35EBE0F3E080818470816280830C9462
:103450001C1A80910B038695869586950895809118
:103460000B0381FD13C0826080930B030E941C1A22
:103470008091B50280FF08C085EE9BE09F938F93FB
:103480000E9413090F900F900C94501C0895809186
:103490000B0381FF13C08D7F80930B030E941C1AC6
:1034A0008091B50280FF08C088EC9BE09F938F93CA
:1034B0000E9413090F900F900C945C1C0895CF93F9
:1034C000C0910B03C695C1708091B50280FF0CC0FE
:1034D0001F92CF9381E09CE09F938F930E941309EA
:1034E0000F900F900F900F90CC2319F0CF910C9468
:1034F000471ACF910C942F1A80910B0386958170F7
:1035000008958091170108950E94E22A811104C054
:103510000E94872B0E94211A0E94181A80930B0385
:10352000883220F08770806280930B0390910B03A8
:10353000892F817090FF04C0892F86958695869586
:103540000C94241C80910B03982F96959695969534
:10355000943040F49F5F990F990F990F8770892BD2
:1035600080930B0380910B03816080930B030E9477
:103570001C1A8091B50280FF11C080910B038695C3
:10358000869586951F928F9388E89CE09F938F93F2
:103590000E9413090F900F900F900F9080910B03D2
:1035A0008695869586950C94241C80910B03982F04
:1035B000987F79F0885080930B03887F91E009F41D
:1035C00090E080910B0390FB80F980930B030E94A5
:1035D0001C1A8091B50280FF11C080910B03869563
:1035E000869586951F928F9380E79CE09F938F939B
:1035F0000E9413090F900F900F900F9080910B0372
:103600008695869586950C94241C80910B0380FDED
:103610001FC0816080930B03813019F489E080938F
:103620000B0380910B030E941C1A8091B50280FF4E
:1036300008C088E49CE09F938F930E9413090F9029
:103640000F9080910B038695869586950C94241C8B
:10365000089580910B0380FF14C08E7F80930B032D
:103660000E941C1A8091B50280FF08C085E39CE08F
:103670009F938F930E9413090F900F9080E00C94FA
:10368000241C0895CF93C0910B03C1708091B502A3
:1036900080FF0CC01F92CF938AE59CE09F938F938D
:1036A0000E9413090F900F900F900F90CC2319F0E8
:1036B000CF910C94291BCF910C94051B90910B0377
:1036C000892F8695869586958F5F8F719770853047
:1036D00080F5880F880F880F892B80930B038091CA
:1036E0000B03887F91E009F490E080910B0390FB3D
:1036F00080F980930B030E941C1A8091B50280FF11
:1037000011C080910B038695869586951F928F93A5
:1037100081E29CE09F938F930E9413090F900F907A
:103720000F900F9080910B038695869586950C944B
:10373000241C90930B03D3CF853008F084E0909144
:103740000B039770282F220F220F220F922B90939A
:103750000B03987F21E009F420E090910B0320FBFC
:1037600090F990930B030C94241C0E949C1B809155
:103770000B030C941C1AFC01DB0112968C9188231C
:10378000F9F0EC5BFC45E730F105D8F4E05AF94C70
:103790000C94183584E00E94B51B80E0089580E009
:1037A000FACF0E94D51AF9CF0E94A21AF6CF0E9432
:1037B000421BF3CF0E945E1BF0CF0E945F1AEDCF39
:1037C00081E00895269A2E9808952E980895CF9214
:1037D000DF92EF92FF928C3724E1920750F469E078
:1037E00070E00E94CE34CB01FF90EF90DF90CF903D
:1037F0000895B0E0A0E0BC01CD016A50774D8F4F35
:103800009F4F982F872F762F662725EF38E241E0CC
:1038100050E00E94F63469017A01CA01B9010E94A0
:10382000B2349B01AC01C701B6010E94B234672FCC
:10383000782F892F99276115710521E0820791055D
:1038400091F66FEF7FEFCFCFCF93C82F853000F584
:1038500081111FC0809180008F7D809380000E9425
:10386000E51B2C2F30E0AFEFBFEF0E942635DC01C7
:10387000CB0122E0B695A795979587952A95D1F724
:103880000E94E71B90938B0080938A00CF9108954C
:10389000C4E080918000806280938000E2CF089530
:1038A00010920F0210920E0210921002EFE6F0E05A
:1038B0008081816080830895EFE6F0E080818E7FD3
:1038C00080830E94291A0C94241C1F920F920FB619
:1038D0000F9211242F933F934F935F936F937F9396
:1038E0008F939F93AF93BF93CF93EF93FF930E94D8
:1038F000811A40910E0250910F024F5F5F4F94EF7B
:10390000899F90011124CA01B9010E94CE3490937D
:103910000F0280930E02B901660F672F661F770BA7
:1039200071950E94CE346F7780911002823041F4FD
:10393000603451F480916F008E7F80936F0004C0DB
:10394000813011F46F37B1F3E62FF0E0E056F34F1A
:10395000C4910E94291A41E051E0C49F9001C59F83
:10396000300D11243695279536952795482F429F7F
:10397000C001439F900D11240E94E71B90938B0080
:1039800080938A00FF91EF91CF91BF91AF919F916A
:103990008F917F916F915F914F913F912F910F90F8
:1039A0000FBE0F901F9018950E94E21B82E2809339
:1039B000800089E1809381008FEF9FEF90938700D3
:1039C000809386000E94841A0E947C1A81110C94B4
:1039D000501C08956A9A4EB14B7F5EB15460EFB7A8
:1039E000F8949B01220F331F260F371F280F391F12
:1039F0002817390741F4EFBF8FE594E00197F1F7FD
:103A000000C000000895DC016D91CD0178E05EB941
:103A1000000000C067FF4EB9660F000000C000C084
:103A200000C04EB900C07A9591F7E2CF0F931F9373
:103A3000CF93DF93C42FD22FFC0182818823C9F05A
:103A4000409313020E94F42C90931202809311026F
:103A500080E28C0F883008F050C0C77081E001C050
:103A6000880FCA95EAF7DF91CF911F910F910C94BF
:103A7000082210911302141335C080911102909105
:103A800012020E940C2D883C910560F5C0E2CD0F1A
:103A90001D17B9F080E2810F883040F4177081E083
:103AA00001C0880F1A95EAF70E940F22C83048F427
:103AB00081E09D2F977001C0880F9A95EAF70E94C8
:103AC0000822802F0E940022C830B8F4D77081E00D
:103AD00001C0880FDA95EAF7DF91CF911F910F911E
:103AE0000C940F2280E28C0F883038F4C77081E08C
:103AF00001C0880FCA95EAF7EFCFDF91CF911F91F0
:103B00000F9108950F939C01CB01243F4CE534079E
:103B100059F1A8F4293DFCE53F0701F12A3D4CE5A8
:103B20003407D1F1283D3C4591F406E221EE41EE07
:103B300068ED7CE50E94161D80E00F910895263FF8
:103B4000FCE53F07E9F0B0F0273F3C45F9F0FC0108
:103B50008281882339F110921302EFCF07E225EE1C
:103B600045EE69ED7CE5E6CF06E221EE40EE64EF3E
:103B70007CE5E0CF07E225EE44EE65EF7CE5DACFA9
:103B800006E221EE42EE66EF7CE5D4CF07E225EEB9
:103B900046EE67EF7CE5CECF08E221E045EE6AED28
:103BA0007CE5C8CF81E0C9CFCF93DF93EC01FB0167
:103BB0008281882309F419C1C230FCE5DF07C0F116
:103BC000C6319CE5D90730F09E012B5F3C4529307A
:103BD000310570F50E94F52A9093DD028093DC0296
:103BE000C031ECE5DE0709F4CFC008F05BC0C83097
:103BF0008CE5D80709F4B6C088F5C430ECE5DE07DB
:103C000009F4A8C0C0F4C2308CE5D80709F49CC000
:103C10008091DC028260C330DC4509F498C0809159
:103C2000DC029091DD020E94032B0E94722480E04E
:103C3000DF91CF9108958091DC028061C630ECE580
:103C4000DE0709F484C08091DC028860C730DC455F
:103C500008F47DC08091DC02806279C0CC308CE5B4
:103C6000D80709F489C070F48091DC028C60CA30F6
:103C7000ECE5DE0709F46BC008F478C08091DC0243
:103C80008E7F65C0CE308CE5D80709F479C080916D
:103C9000DC028B7FCF30DC4508F459C08091DC0218
:103CA0008F7E55C0CC3FECE5DE0709F457C030F5F8
:103CB000C3318CE5D80709F46FC078F4C131ECE565
:103CC000DE0709F465C0C231DC4509F0A8CF0E94C7
:103CD00072248091DC028F773AC0C5318CE5D80719
:103CE00009F462C008F476C08091DD028160CB3FA8
:103CF000DC4509F094CF8093DD0291CFC115FDE53D
:103D0000DF0709F44DC088F48091DD028D7FCE3F3E
:103D10009CE5D90781F38091DD028E7FCF3FDC45A2
:103D200050F38091DD028360E6CFC230FDE5DF070E
:103D300009F459C008F444C080E0C330DD4509F0FF
:103D40006ECF0E94892B6BCF8091DC0281608093C3
:103D5000DC0265CF8091DC028460F9CF8091DD02C6
:103D60008260C9CF8091DC028064F1CF0E9472240E
:103D70008091DC028068EBCF8091DC028D7FE7CF01
:103D80008091DC02877FE3CF8091DC028F7DDFCFE3
:103D90008091DC028F7BDBCF8091DC02837FD7CFE9
:103DA0008091DD028C7FA7CF8091DC0282FB992776
:103DB00090F921E0922790FB82F990FB83F9C7CF1D
:103DC0008091DD02982F909591708E7F892B90FBCA
:103DD00081F991CF0E9472249091DC02892F97FB88
:103DE00087F98058B4CF81E0ACCF81E021CFCF9369
:103DF000DF93EB0186319C4511F50E94252A9A81BB
:103E0000992399F08A7A91E009F490E09093140252
:103E1000811109C089E20E94CC290E94752A80E0A4
:103E2000DF91CF91089585E3F6CF8091140281113F
:103E300004C089E20E94D329F0CF85E3FBCF81E063
:103E4000EFCF90931A02809319020895E09119021E
:103E5000F0911A02309721F00190F081E02D099441
:103E600080E00895EF92FF920F931F93CF93DF931B
:103E7000EC01E0911902F0911A02309709F446C062
:103E800080912401882341F08091DC0287FF04C0E7
:103E90008881898385E088830280F381E02DCE01CB
:103EA00009958091B50282FF31C080FF04C088E28D
:103EB0009EE00E947A0810E000E082E2E82E8EE0A8
:103EC000F82E8091B50280FF0EC0FE01E00FF11FB9
:103ED00080811F928F93FF92EF920E9413090F909F
:103EE0000F900F900F900F5F1F4F0830110549F78B
:103EF0008091B50280FF0AC080E29EE0DF91CF9101
:103F00001F910F91FF90EF900C947A08DF91CF9161
:103F10001F910F91FF90EF9008952091170230911B
:103F200018022817390771F090931802809317022E
:103F3000E0911902F0911A02309721F00680F78182
:103F4000E02D09940895209115023091160228174A
:103F5000390771F09093160280931502E0911902CF
:103F6000F0911A02309721F00084F185E02D099438
:103F700008950E94002D6093280270932902809377
:103F80002A0290932B02609324027093250280935F
:103F9000260290932702089585B7806885BF85B76C
:103FA000806885BF0895089508950C94D31F0895DF
:103FB0000C94D71F0E94CC1F80E09FE20E94502DDE
:103FC0000E94D41F0C94D51F81E008950C94E41F27
:103FD000089508950E94E81F0C94E91F0E94EB2C9D
:103FE0000E94DC0C0E94841A0E94DE170C94D81FD9
:103FF000CF93C82F8091B50282FF1EC080FF1CC0E6
:1040000081E49EE00E947A088091B50280FF14C08E
:104010001F92CF938CE39EE09F938F930E9413098E
:104020008091B5020F900F900F900F9080FF04C009
:104030008AE39EE00E947A088C2FCF910C94340A78
:104040008F929F92AF92BF92CF92DF92EF92FF92A8
:104050000F931F93CF93DF93CDB7DEB72A970FB699
:10406000F894DEBF0FBECDBF0E941A0D81110E94D1
:10407000B91F5CE1852E52E0952E10E000E0A02EE5
:10408000802F0E946D0C6C01F401E190F1904F01C2
:10409000E816F90609F45EC08091B50281FD0E9420
:1040A000760CC7018C259D25B12CEE24E394F12CD0
:1040B0009C012E213F21232B09F446C00E94E61FBC
:1040C0008823A9F0BE82AF82CE20DF2081E0CD28F8
:1040D00009F480E088870E94F42C8160782F9A8709
:1040E00089874E815F8168858A850E94D420000F70
:1040F000111FF801E45EFD4F80819181E826F926C9
:10410000F182E0820E948D180E944F1C0E94261F9F
:1041100090911B028917A9F10E94261F80931B0210
:104120002A960FB6F894DEBF0FBECDBFDF91CF91B8
:104130001F910F91FF90EF90DF90CF90BF90AF90C5
:104140009F908F900C94F81FB394EE0CFF1CFEE030
:10415000BF12AECF0F5F1F4F0430110509F08FCF94
:104160008FEF89838A831B820E94F42C8160782FD1
:104170009D838C8349815A816B818D810E94D420DB
:10418000C1CF2A960FB6F894DEBF0FBECDBFDF9128
:10419000CF911F910F91FF90EF90DF90CF90BF9044
:1041A000AF909F908F900895DF92EF92FF920F93C0
:1041B0001F93CF93DF93CDB7DEB72B970FB6F8944D
:1041C000DEBF0FBECDBF7A878B87F42E052F162F4B
:1041D000E72ED82E61110E94452A1E821D827E2D57
:1041E000EC82DD824F2D502F612F8D2D9E812B96DD
:1041F0000FB6F894DEBF0FBECDBFDF91CF911F91F8
:104200000F91FF90EF90DF900C94E826FC018081E5
:1042100091810C949E29CF93C82F882309F488C0DC
:104220008238C1F40E94261F81FD82C089E30E946A
:10423000CC290E94752A2FEF81EE94E02150804016
:104240009040E1F700C0000089E30E94D329CF919C
:104250000C94752A8338A1F40E94261F80FD68C043
:1042600083E50E94CC290E94752A2FEF81EE94E00D
:10427000215080409040E1F700C0000083E5E5CF89
:104280008438A1F40E94261F82FD52C087E40E9458
:10429000CC290E94752A2FEF81EE94E021508040B6
:1042A0009040E1F700C0000087E4CFCF8CEF8C0F87
:1042B000813AB8F48C2F0E947F10811139C06C2F85
:1042C00080911801909119010E94A22B882329F056
:1042D0008C2F0E94D3290E94752A8C2F0E94CC29F2
:1042E000B6CF80E28C0F883048F4C77081E001C0FF
:1042F000880FCA95EAF70E94282AA9CFEBE5EC0FB0
:10430000E33040F4F0E0EF53FE4F808190E0CF9136
:104310000C948D1FC85AC73158F4EC2FF0E0EE0F03
:10432000FF1FED56FE4F80819181CF910C94A31F0A
:10433000CF910895882309F44BC0823871F40E940C
:10434000261F81FF45C089E30E94CC290E94752A5F
:1043500089E30E94D3290C94752A833859F40E946A
:10436000261F80FF35C083E50E94CC290E94752A54
:1043700083E5EFCF843859F40E94261F82FF28C0BE
:1043800087E40E94CC290E94752A87E4E2CF9CEF43
:10439000980F913AF0F290E2980F983050F48770AD
:1043A00091E001C0990F8A95EAF7892F0E942E2A81
:1043B000D2CF9BE5980F933020F490E080E00C94EE
:1043C0008D1F885A873120F490E080E00C94A31F61
:1043D00008951F93CF93DF93182FEB010E940B21B9
:1043E000209731F4812FDF91CF911F910C949A2166
:1043F0008FE99FE00197F1F700C000002197F0CF0F
:1044000070E060E0893311F460E570E00C94E9211C
:10441000882321F00E94282A0C94752A0895882365
:1044200021F00E942E2A0C94752A0895BF92CF92F3
:10443000DF92EF92FF920F931F93CF93DF936C0164
:10444000D62FC72FFC011281058102950F700E94A3
:10445000EA29E82E8823A1F0E12E112389F08C2F80
:10446000807F803429F080E28D0FE12C883040F08D
:1044700082E00E94C62A0E94EA2991E0E82EE926FD
:10448000BC2EB2949FE0B922EB2DF0E0E959F94C33
:104490000C9418350C2F0F70C07F11F00295007F1F
:1044A0001123A9F0002359F080E28D0F883010F01D
:1044B000D11109C0802F0E94282A0E94752A8D2FB1
:1044C0000E940B2114C0802F0E94382AF6CF8D2F16
:1044D0000E949A21002359F080E28D0F883010F05D
:1044E000D1112CC0802F0E942E2A0E94752A2B2DBC
:1044F0002850330B2430310520F40E94261F0E94DF
:10450000340AEE2009F493C10E94E62980FD8FC190
:10451000F60112820E94E0290E946C28C6010E94C6
:1045200038240E94E029DF91CF911F910F91FF90D5
:10453000EF90DF90CF90BF900C948D28802F0E9439
:104540003E2AD3CFFC2FFF70FF2EC07FC03219F060
:10455000F29480EFF822DD2369F0D13049F1112384
:1045600091F1002351F1F601858180FFA8CF8F7072
:10457000858323C0112381F0011106C00E94582AAF
:104580008F290E940822B3CF0130C1F70E94582A18
:104590008F290E945E2AABCF011106C00E946B2AB0
:1045A0008F2D0E940F22A3CF013009F4A0CFF6CFA8
:1045B000112329F0063008F09ACF8F2DE2CF053075
:1045C00008F095CFEDCF002359F3D93349F4FFEF2D
:1045D00027EE33E0F15020403040E1F700C000000A
:1045E0008D2F0E949A2183CF8C2F8695869583707C
:1045F00069F0813009F07BCF8D2F9C2F93701111C2
:1046000002C090E080E00E94A31F71CF8D2F9C2FED
:104610009370111102C090E080E00E948D1F67CF5F
:104620008C2F837009F041C0111161CF4D2F42953D
:1046300046954770440F440F0D2F0F7010E030E087
:1046400020E0042E04C0000F111F221F331F0A9404
:10465000D2F760E070E0CB01D4FF0FC06FE070E0F4
:1046600080E090E004C0660F771F881F991F4A956D
:10467000D2F76095709580959095C695C695C37054
:10468000602B712B822B932BC23049F058F4C13030
:1046900019F00E941E282BCF0E940C2828CF0E94C0
:1046A000302825CF0E940A2822CF8695112311F0A9
:1046B0008C2F8170882309F41ACF4D2F429546958F
:1046C0004770440F440F0D2F0F7010E030E020E0D2
:1046D000042E04C0000F111F221F331F0A94D2F7AB
:1046E00060E070E0CB01D4FF0FC06FE070E080E0CD
:1046F00090E004C0660F771F881F991F4A95D2F774
:104700006095709580959095C695C695C370602B01
:10471000712B822B932BC23049F058F4C13019F021
:104720000E94E328E4CE0E94D128E1CE0E94F52821
:10473000DECE0E944628DBCECF70112329F08C2FCD
:104740000E946C288D2F1DCF8D2F0E940F228C2F41
:104750000E948D28CCCED23F89F160F4D03FC9F0C1
:10476000D13F29F1112309F442C00111A8CE8C2FA9
:104770008F7121C0D33F39F1D43FA1F7112369F1E3
:10478000CF718C2F0E946C2863E08C2F0E94AB2A83
:10479000AECE112341F0053008F0A9CE8C2F8F71D9
:1047A0000E94B028A4CE063008F0A1CEF7CF8C2FFF
:1047B0008F71112369F20E946C2899CE8C2F8F7112
:1047C0001123C9F3C5CF112329F08C2F8F710E94BB
:1047D00057288DCE0E9452288ACE81E00E94C62A98
:1047E000023008F484CE82E00E94C62A80CE0023E4
:1047F00059F0D93309F0F4CE8FEF97EEE3E0815012
:104800009040E040E1F7EACE8C2F8F71A1CF4C2F82
:104810004F706D2FC6010E943C0A0E94822767CE0E
:104820004C2F4F706D2FC6010E943F0A60CEDF9162
:10483000CF911F910F91FF90EF90DF90CF90BF909D
:1048400008950F931F93CF93DF93EC0168817981D3
:104850008A810E94A8298C010E9407290E940928A8
:10486000B801CE01DF91CF911F910F910C941622C8
:10487000CF93DF93EC018B819C81892B29F0888178
:10488000998189238F3F59F4DF91CF910895CE010B
:104890000E942124CE01DF91CF910C946109CE01B9
:1048A0000E9486098111F3CF0E94EA29882361F3CF
:1048B0008A81882349F382E0DF91CF910C94C62A44
:1048C00090E080E00E948D1F90E080E00E94A31F96
:1048D0000E94452A0E94552A0C94752A0E94DA29C2
:1048E0000C9460240E94352A0C946E24E92FE295E2
:1048F000EF70E250EE3070F4F0E0E958F94C0C94AF
:104900001835803F19F020F4883E20F481E00895A6
:10491000843FE1F380E00895883EC0F3813FD1F702
:10492000F5CF93FB882780F908950E949E290C9467
:104930007624CF93DF9300D000D00F92CDB7DEB7AF
:104940000F900F900F900F900F90DF91CF910895DF
:10495000CF93DF9300D000D000D0CDB7DEB726963E
:104960000FB6F894DEBF0FBECDBFDF91CF91089593
:104970001F93CF93DF93C0912D0216E080912E02FA
:104980008C1304C0DF91CF911F910895D0E01C9F3C
:10499000F0011D9FF00D1124E15DFD4F408151811B
:1049A00062817381848195810E94A8242196C770B9
:1049B000E5CF40915F025091600260916102709179
:1049C000620280916302909164020C94A8241F9368
:1049D000CF93DF9380916402807FA9F4809161027C
:1049E000882389F080912D02C0912E0260915F0290
:1049F00070916002A0916202B0916302D62FD7231A
:104A000016E0C81304C0DF91CF911F91089590E084
:104A1000109711F0DF3F19F401968770F2CF189FBD
:104A20009001199F300D1124F901E15DFD4F418185
:104A30004713F2CF40814613EFCF42814111ECCFB3
:104A4000438154814A1B5B0B483C510528F78091F8
:104A500064028F70806180936402F901EC5CFD4F09
:104A600080818F70806180838FE592E00E9438247E
:104A7000DF91CF911F910C94B824AF92BF92CF9247
:104A8000DF92EF92FF920F931F93CF93DF93CDB7F7
:104A9000DEB761970FB6F894DEBF0FBECDBF8C01B5
:104AA00085E0F801DE011D9601900D928A95E1F7EF
:104AB000F80140815181E2808FE5C82E82E0D82E36
:104AC00060916202709163026115710509F461C120
:104AD00090915F0220916002892F82238F3F09F419
:104AE00058C1A380B480F0906102F501E61BF70B7A
:104AF000FF2009F4FCC080916402382F307FE83C2D
:104B0000F10508F0B2C0311179C0FE2C251323C085
:104B1000941321C0E1101FC08F70806180936402E4
:104B20000E94D924C6010E94382480916402F801B1
:104B300085838F2D61960FB6F894DEBF0FBECDBF73
:104B4000DF91CF911F910F91FF90EF90DF90CF9069
:104B5000BF90AF900895AB2829F0842F85238F3F15
:104B600009F033C180E0F82FF170DF2E80FF3CC0E8
:104B700080912D0220912E0236E0821315C04D87C0
:104B80005E878D859E850E949E29292F22952F70F4
:104B90002230F0F0243018F59F70F1F0F801958183
:104BA000907FD1F4D12C1EC090E0389FF001399F46
:104BB000F00D1124E15DFD4F6181651306C0608138
:104BC000641303C062816E110FC001968770D5CF48
:104BD0009F7011F0882331F3805E883018F3C8018C
:104BE0000E943824FD2CA5CFEE2009F4A2CF80919D
:104BF0006402816080936402F12C9BCF251306C070
:104C0000941304C0F801EE2009F48DC04D875E872F
:104C10008D859E850E949524882319F1EE2009F147
:104C200080916402803270F020915F0230916002C6
:104C300038872F831986BB86AA868C87CE01079674
:104C40000E94382486E0F801AFE5B2E001900D92B1
:104C50008A95E1F70E94E7240E94D924FF24F39467
:104C600068CFC8010E943824F9CF311113C07A2DC2
:104C7000B98AA88A6E2D89890E9499248FE592E0CD
:104C80000E94382486E0F60111928A95E9F70E9485
:104C9000D924B2CF25130FC094130DC0E1100BC05F
:104CA000F8018583C8010E94382486E0F60111923C
:104CB0008A95E9F73ECF4D875E878D859E850E9458
:104CC0009524882371F2EE2061F280916402803293
:104CD00008F4B8CF20915F02309160023A832983B3
:104CE0001B82BD82AC828E83CE010196A9CFE83CA7
:104CF000F10508F041C0FE2CEE2009F4B2CF2513D7
:104D00002AC0941328C08091640280FD1BC0982F94
:104D1000907FC1F0F8018583903F31F0982F907F0C
:104D2000905F8F70892B8583C8010E94382486E0AC
:104D3000F801AFE5B2E001900D928A95E1F70E948B
:104D4000D924F7CE86E0F801AFE5B2E001900D92EC
:104D50008A95E1F7EECE4D875E878D859E850E9410
:104D6000952481116FCF80916402816080936402E9
:104D7000C8010E943824DDCE7A2DB98AA88A6E2D0A
:104D800089890E94992486E0F60111928A95E9F7B3
:104D9000D6CFEE2009F465CF4D875E878D859E8541
:104DA0000E949524F82E882309F45BCF86E0F80151
:104DB000AFE5B2E001900D928A95E1F78FE592E0C0
:104DC0000E9406210E94E724BACF81E08E25CBCE37
:104DD0001F93CF93DF93CDB7DEB72C970FB6F89420
:104DE000DEBF0FBECDBF4F83588769877A878B8719
:104DF0009C87CE0107960E943D25882369F08A850D
:104E00009B85892B39F04F815885842F85238F3FCF
:104E100009F071C016E05FC086E0FE013796DE0142
:104E2000119601900D928A95E1F78A859B85892BD1
:104E300089F38F81988589238F3F61F320912E021A
:104E400030E0C90101968770992740912D024817DB
:104E5000190671F40E94722410922E0210922D02F3
:104E600086E0EFE5F2E0DF011D928A95E9F7D2CF07
:104E700096E0929FD001939FB00D1124A15DBD4F8C
:104E8000FE01319601900D929A95E1F780932E02E2
:104E90000E94B824BFCF819FC0011124815D9D4F26
:104EA0000E943D258823E9F0E0912D021E9FF0012C
:104EB0001124E15DFD4F40815181628173818481C4
:104EC00095810E94A82480912D0290E00196877020
:104ED000992780932D0280912D0290912E028913A3
:104EE000DACF2C960FB6F894DEBF0FBECDBFDF91A0
:104EF000CF911F91089569857A858B859C850E9445
:104F0000A82488CFEF92FF920F931F93CF93DF9344
:104F10008C01892B81F0F12CEE24E394E801219699
:104F2000F8018491843770F4843008F05FC08130D8
:104F3000B1F08230A1F1DF91CF911F910F91FF90DD
:104F4000EF900895853709F44CC008F43DC09CE704
:104F5000980F903780F78F770E949A2149C00E5F93
:104F60001F4FFE01849190E2980F983060F4877093
:104F7000FE2D01C0FF0F8A95EAF78F2F0E94482A65
:104F80000E94752A02C00E940B218F2D815030F2A1
:104F9000EFE9FFE03197F1F700C00000F7CF0E5FB7
:104FA0001F4FFE01849190E2980F983050F4877063
:104FB000FE2D01C0FF0F8A95EAF78F2F0E944E2A1F
:104FC000DFCF0E949A21E1CF0E5F1F4FFE01C491F7
:104FD000C150D8F28FE99FE00197F1F700C00000BF
:104FE000F7CF0E5F1F4FFE01F490CFCF0E940B2131
:104FF0008E01CBCF08950C94FA270E94FB27609373
:105000008C0270938D0280938E0290938F020C9489
:10501000602408950C94FD270F931F9300918C0238
:1050200010918D0220918E0230918F02602B712B96
:10503000822B932B1F910F910C94FD270F931F939D
:1050400000918C0210918D0220918E0230918F027E
:1050500060237123822393231F910F910C94FD27CA
:105060000F931F9300918C0210918D0220918E025C
:1050700030918F0260277127822793271F910F910C
:105080000C94FD270C94FA270C9442280E94442883
:10509000609388027093890280938A0290938B02B6
:1050A0000C94602460E070E0CB010C9446280F93D0
:1050B0001F9341E050E060E070E08A019B0104C072
:1050C000000F111F221F331F8A95D2F7C901B801A3
:1050D0001F910F910C9446280F931F9341E050E0CD
:1050E00060E070E004C0440F551F661F771F8A956B
:1050F000D2F78091880290918902A0918A02B091A2
:105100008B028A019B01082B192B2A2B3B2BC901EF
:10511000B8011F910F910C9446280F931F9341E003
:1051200050E060E070E004C0440F551F661F771F19
:105130008A95D2F7CB01BA016095709580959095CC
:10514000009188021091890220918A0230918B028D
:1051500060237123822393231F910F910C9446287F
:105160000F931F9341E050E060E070E004C0440FF3
:10517000551F661F771F8A95D2F7809188029091FC
:105180008902A0918A02B0918B028A019B010827B3
:1051900019272A273B27C901B8011F910F910C94A9
:1051A00046280F931F930091880210918902209145
:1051B0008A0230918B02602B712B822B932B1F91D3
:1051C0000F910C9446280F931F9300918802109121
:1051D000890220918A0230918B02602371238223FD
:1051E00093231F910F910C9446280F931F930091C6
:1051F00088021091890220918A0230918B026027E7
:105200007127822793271F910F910C9446280895A8
:105210002EE0929F800D1124982F977041E001C0DD
:10522000440F9A95EAF786958695869595E0899F2D
:10523000F0011124EB59FD4F90E080E070E05191B6
:10524000DF0111979B01082E02C0369527950A941D
:10525000E2F7217021952527242325272C930196F9
:105260008530910561F708952EE0929F800D1124FD
:10527000982F977086958695869525E0829FF001F8
:105280001124EB59FD4F50E040E080E0219130E0E7
:10529000092E02C0369527950A94E2F7217033272C
:1052A000042E01C0220F0A94EAF7822B4F5F5F4F52
:1052B0004530510559F70895BF92CF92DF92EF9292
:1052C000FF920F931F93CF93DF938C01C0908802BE
:1052D000D0908902E0908A02F0908B0280918C023B
:1052E00090918D02A0918E02B0918F02C82AD92A86
:1052F000EA2AFB2ACFE1D0E0BC2ED701C6010C2E52
:1053000004C0B695A795979587950A94D2F780FD26
:105310000EC0219788F7B12C8B2DDF91CF911F9173
:105320000F91FF90EF90DF90CF90BF900895B8015C
:105330008C2F0E945C0A019761F3EECFCF93DF932D
:10534000EC010E945C29BE01DF91CF910C945C0AB4
:105350001F93CF93DF93EB0190912C02992331F0AF
:10536000CB01DF91CF911F910C949E29882379F076
:10537000CB010E945C29182F682FCE010E940829BA
:10538000BE01812FDF91CF911F910C945C0ACB015C
:105390000E943429182FF4CF682F80911801909122
:1053A00019010C94442C682F8091180190911901D7
:1053B0000C944F2C80911801909119010C945A2C47
:1053C00080919002859585958595089580919002AC
:1053D0008770089590919002977081E009F480E0C1
:1053E0000895CF93C82F8091DD0282FB992790F911
:1053F0009C17D1F0C0FB82F98093DD028091DC0222
:105400009091DD020E94032B8091B50280FF0CC0B9
:105410001F92CF9384E59EE09F938F930E94130980
:105420000F900F900F900F90CF9108958091DD0213
:1054300082FB882780F991E089270C94F12981E08B
:105440000C94F12980E00C94F1298091B402089524
:105450009091B402892B8093B40208958095909125
:10546000B40298239093B40208951092B402089560
:105470009091B302892B8093B30208958095909107
:10548000B30298239093B30208951092B302089543
:105490009091B202892B8093B202089580959091E9
:1054A000B20298239093B20208951092B202089526
:1054B00080919102089508950C945B2A9091DD02E9
:1054C00092FD08C090919102981721F0809391026B
:1054D0000C945C2A089580919102882329F01092FF
:1054E000910280E00C945C2A0895E0911801F091FB
:1054F00019018091B4028083E0911801F0911901A3
:1055000080819091B302892B8083E0911801F09102
:10551000190180819091B202892B80839091910230
:10552000992381F0E0911801F09119018081892B74
:10553000808380911801909119010E948E2B811116
:105540000E946B2A80911801909119010C94321FCE
:1055500008950C94A82A9091DD0292FD10C098E065
:10556000899F90011124622B609390020E946C2805
:10557000809190028595859585950C94A92A0C9427
:105580006C281092900280E00C94A92A90919002CD
:105590008095892380939002282F277039F4282F33
:1055A000082E000C330B9217130621F49091DD02A4
:1055B00092FF07C08595859585950E948D280C944E
:1055C000C12A089590E080E00E94C63521E08A3E1D
:1055D0009E4F09F020E0822F089582E090E00C9425
:1055E000B83583E090E00C94B835CF9384E090E038
:1055F0000E94B835C82F82E290E00E94B835982FFB
:105600008C2FCF910895CF93C92F682F84E090E01D
:105610000E94CC356C2F82E290E0CF910C94CC3577
:10562000AB01BC018FE090E00C94DE35AB01BC0116
:1056300083E190E00C94DE3560E070E0CB010C94E7
:10564000162B60E070E0CB010E94102B0C941C2BF9
:105650006AEE7EEF90E080E00E94EA3560E082E052
:1056600090E00E94CC3560E083E090E00E94CC3571
:1056700010928C0210928D0210928E0210928F0264
:1056800060E084E090E00E94CC3560E082E290E04F
:105690000E94CC3560E085E090E00E94CC3560E06F
:1056A00086E090E00E94CC356FEF87E090E00E94AA
:1056B000CC3540E050E0BA0188E090E00E94DE3551
:1056C00060E08DE090E00E94CC3540E050E0BA010F
:1056D00088E190E00E94DE3560E087E190E00E9482
:1056E000CC3540E050E0BA018CE190E00E94DE351C
:1056F00070E060E080E290E00E94EA3540E050E037
:10570000BA0188E190E00E94DE350C94212B0C94C4
:10571000282B682F8EE090E00C94CC35FC0132965B
:1057200080912401882321F08091DC029EE187FF93
:1057300096E080E0915008F4089521912223D1F35E
:105740008F5FF8CF662301F1209124012223F1F02D
:105750002091DC0227FF1AC0462F469546954695B4
:105760004E3190F4677021E030E002C0220F331F09
:105770006A95E2F7840F911DFC01828190E0282355
:10578000392381E0232B69F480E00895FC013296EF
:1057900008962191261721F0E817F907D1F7F4CFE1
:1057A00081E008959C01FC0132969FEF80E04191D9
:1057B000461751F09F3F19F4411101C0982F8F5F98
:1057C0008630A9F79F3F09F40895290F311D97FDF1
:1057D0003A95F90162830895FC0132960896219169
:1057E000261303C0DF0111971C92E817F907B9F7D8
:1057F0000895E62FE695E695E695EE3170F4E80F0C
:10580000F92FF11D677021E030E001C0220F6A9589
:10581000EAF78281822B828308958091B50280FF0E
:105820000CC01F926F9387E89EE09F938F930E9416
:1058300013090F900F900F900F900895E62FE695A3
:10584000E695E695EE3178F4E80FF92FF11D6770D3
:1058500021E030E001C0220F6A95EAF720958281AD
:105860002823228308958091B50280FF0CC01F92E7
:105870006F9389E69EE09F938F930E9413090F9088
:105880000F900F900F90089520912401222329F06A
:105890002091DC0227FD0C94F92B0C94D22B209143
:1058A0002401222329F02091DC0227FD0C941E2CD8
:1058B0000C94EC2BFC01329680912401882351F04A
:1058C0008091DC0287FF06C08EE1DF011D928A9580
:1058D000E9F7089586E0F9CF089508950C946D2CAA
:1058E00080911403843061F10E946E2C80E00E944C
:1058F000241C80E00E94340A1092B60288E190E0F5
:1059000020E40FB6F894A895809360000FBE209312
:10591000600083B7817F846083BF83B7816083BF6A
:105920007894889583B78E7F83BF0FB6F894A89537
:1059300080916000886180936000109260000FBECB
:1059400008950895CF930E946C2C0E941A0D0E9416
:10595000A12CC0E08C2F0E946D0C892B31F4CF5FFD
:10596000C430C1F780E0CF91089581E0FCCF089565
:105970000C94B72C0E9472240E94841A0E94261F45
:105980000E94340A0C94B82C1F921FB61F92112447
:105990008F939F93AF93BF938091B602811113C0F1
:1059A00080910C0390910D03A0910E03B0910F0311
:1059B0004196A11DB11D80930C0390930D03A093FC
:1059C0000E03B0930F03BF91AF919F918F911F90E2
:1059D0001FBE1F90189582E084BD93E095BD9AEF9D
:1059E00097BD80936E0008952FB7F89480910C03B3
:1059F00090910D03A0910E03B0910F032FBF089556
:105A00002FB7F89460910C0370910D0380910E03F1
:105A100090910F032FBF08959C014FB7F894809188
:105A20000C0390910D03A0910E03B0910F034FBF93
:105A3000821B930B089578941F921FB61F92112416
:105A40008F939F93AF93BF9380910C0390910D031D
:105A5000A0910E03B0910F030196A11DB11D80937B
:105A60000C0390930D03A0930E03B0930F03BF910B
:105A7000AF919F918F911F901FBE1F90189587E740
:105A800097E7909301088093000888E19AE00FB6A9
:105A9000F894A895809360000FBE90936000FFCFAC
:105AA0009093D5018093D40108958091DA020895EE
:105AB0000895CF93DF9300D00F92CDB7DEB79091CA
:105AC0001403943019F589837B836A8382E0809381
:105AD000E9008FEF9091E800815095FD06C095EDAB
